:020000040800F2
:10000000184A0020490F0008450100084701000870
:100010004B0100084F0100085301000800000000D8
:100020000000000000000000000000005701000870
:1000300059010008000000005B0100085D01000894
:10004000630F0008630F0008630F0008630F0008C8
:10005000630F0008630F0008630F0008630F0008B8
:10006000630F0008630F0008630F0008630F0008A8
:10007000630F0008630F0008630F0008630F000898
:10008000630F0008630F0008630F0008630F000888
:10009000630F0008630F0008630F0008630F000878
:1000A000630F0008630F0008630F0008630F000868
:1000B000630F0008630F0008630F0008630F000858
:1000C000630F0008630F0008630F0008630F000848
:1000D000630F0008630F0008630F0008630F000838
:1000E000630F0008630F0008630F0008DFF810D0EB
:1000F00001F0F4FF0048004705010008AFF300805D
:10010000184A002000F04BFA0D4800F0ADFD00F059
:10011000B1FB00F0A2FA044604232246012108465E
:1001200000F0F4F900F0AFFA04460423224601215E
:10013000022000F0EBF901E000F048FBFCE70000D2
:1001400060E31600704700BFFEE700BFFEE700BF98
:10015000FEE700BFFEE7704770477047704700EB4F
:10016000C001C9004FF0E0225161002191610521D9
:10017000116100BF4FF0E021096901F480310029CD
:10018000F8D004214FF0E0221161704700B503461A
:1001900003E04FF47A70FFF7E2FF181EA3F10103AA
:1001A000F7D100BD10B5044603E04FF47A70FFF7B5
:1001B000EDFF201EA4F10104F7D110BD08B5012107
:1001C000092001F01BFD0121544801F02AF91420F7
:1001D0008DF8030003208DF802001820ADF8000010
:1001E00069464F4801F04CF8012208214C4801F0C3
:1001F000F8F8012210214A4801F0F3F808BD10B5C3
:1002000001221021464801F0ECF80122082144485F
:1002100001F0E7F800221021414801F0E2F8002245
:1002200008213F4801F0DDF810BD10B50022102173
:100230003B4801F0D6F801220821394801F0D1F8F5
:1002400001221021364801F0CCF810BD70B50446EB
:1002500000251BE004F0800028B101221021304865
:1002600001F0BFF804E0002210212D4801F0B9F898
:100270006006040E01220821294801F0B2F800228C
:100280000821274801F0ADF8681CC5B2082DE1DB54
:100290001021234801F087F8064601220821204852
:1002A00001F09FF8002208211D4801F09AF830461D
:1002B00070BD00B585B00121092001F09FFC1C2014
:1002C0008DF813001820ADF8100003208DF81200EF
:1002D00004A9134800F0D4FF0121480501F09BFC5C
:1002E0000020ADF804000F4800904BF6FF70ADF809
:1002F00006000020ADF80A004FF48040ADF80C0075
:100300000020ADF808006946074801F020F90121F6
:10031000054801F09AF905B000BD00000002300068
:10032000000C0140801A06000054004010B504463D
:10033000FFF765FF7820FFF789FF0020FFF786FFB2
:100340002046FFF783FFFFF770FF10BD10B504468E
:10035000FFF755FF7820FFF779FF4020FFF776FF82
:100360002046FFF773FFFFF760FF10BD70B505462D
:100370000C4645F0B000FFF7D9FF102141EA1410F8
:10038000FFF7D4FF04F00F00FFF7D0FF70BD70B58A
:1003900000240EE000212046FFF7E8FF002504E0DE
:1003A0000020FFF7D3FF681CC5B2802DF8DB601C6E
:1003B000C4B2082CEEDB70BD2DE9F04105460E46B7
:1003C0001746721ED206110E6A1E5206100EFFF755
:1003D000CDFF002409E0A7F12001904A02EB0111B2
:1003E000085DFFF7B3FF601CC4B2082CF3DB721E7C
:1003F000D206110E6A1E012303EB4202D0B2FFF7B0
:10040000B5FF00240BE0A7F12001844A02EB0112A2
:1004100004F10801505CFFF799FF601CC4B2082C7E
:10042000F1DBBDE8F0812DE9F04107460E461546A7
:10043000002407E02A5D3019C1B23846FFF7BCFF3F
:10044000601CC4B2285D0028F4D1BDE8F08110B56D
:100450000246012000E050430B1EA1F10101FAD138
:1004600010BD2DE9F04780460E4617461D46002474
:1004700015E0281B411E0A20FFF7E9FFB7FBF0F04B
:100480000A21B0FBF1F201FB120000F13009301932
:10049000C1B24A464046FFF78FFF601CC4B2AC426F
:1004A000E7DBBDE8F0872DE9F04781468846154631
:1004B0001E46002D06DB2B2241464846FFF77CFFF7
:1004C0002F4605E02D2241464846FFF775FF6F4253
:1004D000002417E0301B411E0A20FFF7B8FFB7FBCE
:1004E000F0F00A21B0FBF1F201FB120000F1300A3A
:1004F00008EB0400401CC1B252464846FFF75CFFBF
:10050000601CC4B2B442E5DBBDE8F0872DE9F047DA
:1005100081460E4690461F4600241DE0381B411EB2
:100520001020FFF794FFB8FBF0F000F00F050A2D44
:1005300008DA05F13000C2B23019C1B24846FFF7FF
:100540003BFF07E005F13700C2B23019C1B248469F
:10055000FFF732FF601CC4B2BC42DFDBBDE8F087AE
:100560002DE9F04780460E4617461D46002412E04E
:10057000281B411E0220FFF76AFFB7FBF0F000F0D6
:10058000010000F130093019C1B24A464046FFF778
:1005900013FF601CC4B2AC42EADBBDE8F08710B5C3
:1005A0000120FFF7FFFDFFF709FEA820FFF7BEFEC1
:1005B0003F20FFF7BBFED320FFF7B8FE0020FFF778
:1005C000B5FE4020FFF7B2FEA120FFF7AFFEC82026
:1005D000FFF7ACFEDA20FFF7A9FE1220FFF7A6FE18
:1005E0008120FFF7A3FECF20FFF7A0FEA420FFF796
:1005F0009DFEA620FFF79AFED520FFF797FE8020EC
:10060000FFF794FE8D20FFF791FE1420FFF78EFE7A
:10061000AF20FFF78BFEFFF7BAFE10BD00000020F1
:1006200010B50121A74800F0DAFE0A20FFF7AEFD61
:100630000121A44800F0D1FE0A20FFF7A7FD10BD5C
:1006400010B5044624B102219E4800F0C6FE03E026
:1006500002219C4800F0C3FE10BD10B50122FF210D
:10066000602000F042FA0A21602000F050FA0446AF
:100670004FF6FF7000EA04240B21602000F047FAD7
:100680000443204610BD10B50122FF21602000F078
:100690002CFA1C21602000F03AFA04464FF6FF7055
:1006A00000EA04241D21602000F031FA04432046B2
:1006B00010BD70B505460E46002412E005EB84001F
:1006C000427815F82410602000F00FFA05EB840042
:1006D000408820B105EB84014888FFF757FD601C76
:1006E00084B2B442EADB70BD08B501211C2001F0E0
:1006F00085FA03208DF8020010208DF803000120F8
:10070000ADF8000069466F4800F0BAFD48208DF84A
:100710000300C020ADF8000069466A4800F0B0FD53
:1007200048208DF803004FF48070ADF80000694652
:10073000644800F0A5FD10208DF803000220ADF8FC
:10074000000069465F4800F09BFD48208DF80300DB
:10075000FF20ADF8000069465B4800F091FD08BD40
:1007600010B508215948FFF7A4FF07215848FFF7A3
:10077000A0FF10BD2DE9F04104460D46A610AF10B4
:100780000022FF21602000F0B0F90422E021602067
:1007900000F0ABF9F2B25A21602000F0A6F9FAB2EB
:1007A0005B21602000F0A1F9B80900F00400C6F355
:1007B000012140EA01025C21602000F096F900224C
:1007C000E021602000F091F9BDE8F08170B50026CD
:1007D000002500BF40213B4800F0E5FD0028F9D08E
:1007E0001CE015E000BF4FF48071364800F0DBFDDF
:1007F0000028F8D034480830006836498855761CFF
:1008000000BF4FF480712F4800F0CDFD0128F8D0D3
:1008100080212C4800F0C7FD0128E3D04021294861
:1008200000F0C1FD0128DCD0002420E02948005D53
:10083000FF281BD12749601C085CD82816D1254603
:1008400011E02448405DD9280CD1681E2149085C7C
:10085000FF2807D12A1B521C91B21E4A101900F022
:100860001BFA02E06D1CB542EBD300BF641CB4421E
:10087000DCD370BD10B5FFF737FFFFF7D1FE00F0F6
:100880002DF8B2211448FFF714FFFFF769FF01228A
:10089000FF21602000F029F900221121602000F0E2
:1008A00024F90022FF21602000F01FF96422D321E7
:1008B000602000F01AF9F0214FF4A070FFF75AFF02
:1008C00010BD0000000C0140000801403C2400085D
:1008D0005C240008180600207421000808B50121D6
:1008E000082001F08BF910208DF8030003208DF80B
:1008F00002008002ADF800006946AC4800F0C0FC80
:1009000008BD08B548208DF803004FF40060ADF82D
:10091000000003208DF802006946A44800F0B0FCF6
:1009200008BD08B510208DF80300C001ADF8000027
:1009300003208DF8020069469C4800F0A1FC08BD28
:1009400010B501229102994800F04BFD0122D1021D
:10095000964800F046FD0520FFF701FC00224FF409
:100960000061924800F03DFD0520FFF7F8FB0022F2
:100970004FF480618D4800F034FD0520FFF7EFFB58
:1009800010BD10B500224FF40061884800F029FD29
:100990000520FFF7E4FB01229102844800F021FDCD
:1009A0000520FFF7DCFB0122D102804800F019FD91
:1009B0000520FFF7D4FB10BD70B50446002626E0E5
:1009C00004F0800028B10122D102784800F009FD2E
:1009D00005E000224FF40061744800F002FD60065B
:1009E000040E0520FFF7BBFB012291026F4800F0C7
:1009F000F8FC0520FFF7B3FB00224FF480616B4841
:100A000000F0EFFC0520FFF7AAFB701CC6B2082E11
:100A1000D6DBFFF776FF0520FFF7A1FB012291024D
:100A2000624800F0DEFC4FF40061604800F0BBFC5F
:100A300005460520FFF793FB00224FF480615B48D9
:100A400000F0CFFC0520FFF78AFBFFF76AFF0DB12E
:100A5000FF2070BD2846FCE770B5FFF752FF002568
:100A600000241EE00520FFF77AFB012291024F4887
:100A700000F0B7FC4FF400614C4800F094FC10B15A
:100A80008020204105430520FFF769FB00224FF439
:100A90008061464800F0A5FC0520FFF760FB601C64
:100AA000C4B2082CDEDB0520FFF759FB01229102BE
:100AB0003E4800F096FC4FF400613C4800F073FCA7
:100AC00006460520FFF74BFB00224FF480613748B4
:100AD00000F087FC0520FFF742FBFFF722FF012E05
:100AE00001D0FF2070BD2846FCE770B506460C46D5
:100AF0001546FFF725FF3046FFF75EFF2046FFF75C
:100B00005BFF2846FFF758FFFFF73BFF70BD70B54E
:100B100004460D46FFF714FF2046FFF74DFF284619
:100B2000FFF74AFFFFF72DFFFFF70AFF44F0010030
:100B3000FFF742FFFFF790FF0646FFF722FF304620
:100B400070BD00B585B00121082001F057F81C20C8
:100B50008DF8130003208DF812008002ADF810000C
:100B600004A9124800F08CFB0121880501F053F81C
:100B70000F4800900020ADF804004BF6FF70ADF870
:100B800006000020ADF808004FF48060ADF80A00C0
:100B90000001ADF80C006946064800F0D8FC0121C0
:100BA000044800F052FD05B000BD0000000C0140FB
:100BB000801A06000058004000B58BB0674800F06E
:100BC000D5F9674800900020019010200290002085
:100BD00003900490802005900020069007900890D4
:100BE0004FF48050099000200A9069465B4800F05D
:100BF0005FFA0021594800F086FA0BB000BD1FB51E
:100C0000044600940020ADF80400ADF80600ADF8ED
:100C10000800ADF80C000C20ADF80A0069465048F9
:100C2000001F01F092F8012280214D48001F01F0C1
:100C300049F91FBD08B518208DF803004FF4007066
:100C4000ADF8000003208DF802006946454800F029
:100C500017FB04208DF803000002ADF80000694680
:100C6000404800F00DFB08BD10B50446012144F2D8
:100C7000040000F0C3FF0121084600F0B2FFFFF7B7
:100C8000D9FF2046FFF7BBFFFFF796FF012134484D
:100C9000001F01F0E6F810BD70B504460D4604B122
:100CA00005B970BD00212D4800F02DFA4FF47040B9
:100CB00000F058FA29484438046585640121274822
:100CC00000F021FA00BF4FF4005000F037FA00287E
:100CD000F9D04FF4005000F045FA00BF4021204801
:100CE000001F01F099F90028F8D000211B4800F0FE
:100CF0000AFA00BFD5E770B5044604B970BD2046B6
:100D000001F0E4F985B229462046FFF7C5FF00BF90
:100D1000F4E770B505460E4600240EE000BF202122
:100D20000F48001F01F078F90028F8D00C48001F88
:100D300001F008F92855601C84B2B442EEDB70BDA6
:100D400000BF704738B504460D46E0B2009001215F
:100D50006846FFF7A1FF204638BD0000440002406E
:100D600004380140000801400CB5002001900090BB
:100D70006C48006840F480306A49086000BF6948E8
:100D8000006800F4003000900198401C0190009829
:100D900018B90198B0F5A06FF1D16248006800F46D
:100DA000003010B10120009001E000200090009878
:100DB000012843D15C48006840F010005A4908609F
:100DC0000846006820F0070008600846006840F008
:100DD000020008605348406852494860084640682D
:100DE00048600846406840F48060486008464068B3
:100DF00020F47C1048600846406840F4E8104860E1
:100E00000846006840F08070086000BF45480068F0
:100E100000F000700028F9D04248406820F003003C
:100E2000404948600846406840F00200486000BF02
:100E30003C48406800F00C000828F9D10CBD10B502
:100E4000FFF792FF10BD10B53648006840F0010072
:100E500034490860084640683449084031494860D0
:100E600008460068324908402E4908600846006874
:100E700020F4802008600846406820F4FE004860A6
:100E80004FF41F008860FFF7DAFF4FF00060294938
:100E9000086010BD10B5002100200022214B5B68C6
:100EA00003F00C0121B1042906D0082928D107E05C
:100EB000214B224C236027E01F4B204C236023E072
:100EC000184B5B6803F47010164B5B6803F48032B8
:100ED000022303EB904022B9194B4343174C236084
:100EE0000DE0104B5B6803F4003323B1144B434314
:100EF000124C236003E0104B4343104C236003E08B
:100F00000D4B0E4C236000BF00BF064B5B68C3F364
:100F100003130C4CE15C094B1B68CB40074C23606E
:100F200010BD000000100240002002400000FFF849
:100F3000FFFFF6FE08ED00E000127A00F005002049
:100F400000093D00F4050020064880470648004798
:100F5000FEE7FEE7FEE7FEE7FEE7FEE7FEE7FEE769
:100F6000FEE7FEE7470E0008ED00000801684FF6B7
:100F7000FE72114001600021016041608160C1602A
:100F80008D49884208D18C490839496841F00F01E0
:100F9000894A083A51608AE087491431884208D169
:100FA00085490839496841F0F001834A083A51609F
:100FB0007DE081492831884208D17F490839496854
:100FC00041F470617C4A083A516070E07A493C31E2
:100FD000884208D178490839496841F47041764A15
:100FE000083A516063E074495031884208D172492F
:100FF0000839496841F470216F4A083A516056E057
:101000006D496431884208D16B490839496841F417
:101010007001694A083A516049E06749783188426D
:1010200008D165490839496841F07061624A083A57
:1010300051603CE06149884206D1011F096841F0D6
:101040000F01021F116032E05C491431884208D15F
:101050005A49091F096841F0F001584A121F1160EE
:1010600025E056492831884208D15449091F0968AA
:1010700041F47061514A121F116018E04F493C3130
:10108000884208D14D49091F096841F470414B4A13
:10109000121F11600BE049495031884207D147497E
:1010A000091F096841F47021444A121F11607047FA
:1010B00010B50022026847F6F0739A430C6A8B68F9
:1010C00023430C6923434C6923438C692343CC6934
:1010D00023434C6A23438C6A23431A430260CB6840
:1010E00043600B6883604B68C36010BD00210160E2
:1010F00041608160C160016141618161C1610162E2
:1011000041628162704721B1026842F001020260CF
:1011100004E002684FF6FE731A40026070471AB18D
:1011200003680B43036002E003688B43036070476E
:10113000416070470146486880B270470146002010
:10114000002201F080531BB11C4B083B1A6802E0DF
:10115000194B083B1A6802EA01030BB1012000E0B9
:101160000020704700F0805119B11449091F086030
:1011700002E011490839486070470146002000220A
:1011800001F080531BB10D4B083B1A6802E00A4B7B
:10119000083B1A6802EA01030BB1012000E00020BD
:1011A000704700F0805119B10449091F086002E03E
:1011B00001490839486070470800024008040240AD
:1011C00010B50446CC48844208D10121042000F027
:1011D0002FFD0021042000F02BFD46E0C74884428B
:1011E00008D10121082000F023FD0021082000F093
:1011F0001FFD3AE0C248844208D10121102000F0CE
:1012000017FD0021102000F013FD2EE0BD488442A0
:1012100008D10121202000F00BFD0021202000F04A
:1012200007FD22E0B848844208D10121402000F0A7
:10123000FFFC0021402000F0FBFC16E0B348844294
:1012400008D10121802000F0F3FC0021802000F073
:10125000EFFC0AE0AE48844207D10121801500F07E
:10126000E7FC0021A01500F0E3FC10BD10B5012142
:10127000084600F0DDFC0021012000F0D9FC10BD83
:101280002DE9F0410246002500260020002300241D
:10129000002791F803C00CF00F0591F803C00CF083
:1012A000100CBCF1000F03D091F802C04CEA050508
:1012B00091F800C0BCF1000F31D0146800202BE081
:1012C0004FF0010C0CFA00F3B1F800C00CEA030671
:1012D0009E4220D183004FF00F0C0CFA03F7BC4361
:1012E00005FA03FC4CEA040491F803C0BCF1280F92
:1012F00006D14FF0010C0CFA00FCC2F814C00AE051
:1013000091F803C0BCF1480F05D14FF0010C0CFA65
:1013100000FCC2F810C0401C0828D1D31460B1F8FA
:1013200000C0BCF1FF0F34DD546800202EE000F156
:10133000080C4FF0010808FA0CF3B1F800C00CEAF1
:1013400003069E4221D183004FF00F0C0CFA03F7E5
:10135000BC4305FA03FC4CEA040491F803C0BCF159
:10136000280F05D100F1080C08FA0CF8C2F8148017
:1013700091F803C0BCF1480F07D100F1080C4FF001
:10138000010808FA0CF8C2F81080401C0828CED3D7
:101390005460BDE8F0814FF6FF7101800221817039
:1013A0000421C17070470246002093680B400BB1C6
:1013B000012000E0002070470146886880B2704735
:1013C00002460020D3680B400BB1012000E0002052
:1013D00070470146C86880B270470161704741613B
:1013E00070470AB1016100E041617047C160704718
:1013F0004FF480320A43826181618261826982692D
:10140000704702460020434B18684FF6807318401F
:1014100040EA021008433F4B186070473E49C861DC
:101420007047F0B50A46002300240021002500F093
:101430000046B6F1004F02D1364EF16901E0354E5B
:101440007168C0F3034583B200F44016B6F5401F3F
:1014500008D121F070612F4E766826F070662D4F0E
:101460007E6012E000F48016B6F5801F06D10326D8
:1014700006FA05F4A14341F0706106E0460D36011D
:1014800003FA06F6B14341F0706122B1460D360110
:1014900003FA06F6314300F00046B6F1004F02D1E0
:1014A0001C4EF16101E01B4E7160F0BD30B50022B1
:1014B0008B071C0F0F2303FA04F2164B08338C1012
:1014C00053F824309343134C08348D1044F82530DE
:1014D00023468C1053F824308C07240F00FA04F4B0
:1014E00023430C4C08348D1044F8253030BD0A4994
:1014F000DC3108607047000000080140000C01402A
:10150000001001400014014000180140001C01407F
:1015100000200140000001400000204210B50446B8
:10152000F748844209D10121480500F08EFB0021D3
:101530004FF4001000F089FB08E00121880500F05D
:1015400084FB00214FF4800000F07FFB10BD2DE9EB
:10155000F04385B004460D460026B1460427DFF867
:10156000A483A6884FF6C0700640684600F0D9FAFA
:10157000DDF80880E448B8FBF0F01FFA80F946EA8D
:101580000906A68020884FF6FE71084020800026BC
:10159000DE49286888420CD828684000B8FBF0F083
:1015A00087B2042F00DA04273E4309F101002084AA
:1015B00027E0E8884BF6FF71884206D1286800EBE7
:1015C0004000B8FBF0F087B209E0286800EBC001EA
:1015D00001EB0010B8FBF0F087B247F48047C7F387
:1015E0000B0008B947F0010747F4004006434FF4E9
:1015F000967009FB00F04FF47A7190FBF1F0401CFB
:101600002084A683208840F00100208026884FF6A1
:10161000F5300640A8886989084306432680A889D2
:1016200029890843208105B0BDE8F08341F2883163
:101630000160002181804BF6FF71C1800021018192
:1016400041814FF480418181704721B1028842F08D
:101650000102028004E002884FF6FE731A40028005
:10166000704721B1828842F40062828004E082885F
:101670004FF2FF731A408280704721B1828842F492
:101680008052828004E082884EF6FF731A40828086
:10169000704721B1028842F48072028004E002881F
:1016A0004FF6FF631A400280704721B1028842F46E
:1016B0000072028004E002884FF6FF531A40028055
:1016C000704721B1028842F48062028004E00288FF
:1016D0004FF6FF331A40028070470A460021818985
:1016E0004FF60173194002F0FE03194381817047E0
:1016F00021B1828942F00102828104E082894FF6A1
:10170000FE731A408281704721B1028842F0400284
:10171000028004E002884FF6BF731A4002807047CF
:101720001AB183880B43838002E083888B438380D4
:101730007047018270470146088AC0B2704712B1F3
:1017400041F0010102E04FF6FE731940018270473B
:1017500008B50246002000900092009808440090CE
:101760000098008808BD21B1028842F4004202803E
:1017700003E00288C2F30E0202807047B1F5006FE9
:1017800004D1028842F40062028004E002884FF231
:10179000FF731A4002807047B1F5005F04D10288E0
:1017A00042F40052028004E002884DF6FF731A40B2
:1017B0000280704721B1028842F48052028004E026
:1017C00002884EF6FF731A4002807047B1F5006F31
:1017D00004D1028842F40062028004E002884FF2E1
:1017E000FF731A400280704721B1028842F0200244
:1017F000028004E002884FF6DF731A4002807047CF
:101800000146088B0012704721B1028842F0100295
:10181000028004E002884FF6EF731A40028070479E
:1018200021B9028842F08002028004E002884FF66B
:101830007F731A4002807047B1F5804F05D0828BCC
:101840004BF6FF731A40828303E0828B42F480429E
:101850008283704770B502460024002500230020D3
:10186000958A138B1B0445EA030626F07F4404EA9D
:1018700001068E4201D1012000E0002070BD10B5AC
:1018800001460020002300228B8A0A8B120443EABF
:10189000020424F07F4010BD0CB502460020002356
:1018A0000193009300920B0F019321F07F41019B64
:1018B0001BB1009B1433009303E0090C009B183309
:1018C0000093009B1B680B400BB1012000E000203F
:1018D0000CBD002221F07F42D3438382704730B594
:1018E000024600200023948801F0E06504EA1543D5
:1018F00021F07F41948A0C4054B14BB1012008E0A3
:101900000054004000127A0040420F00A0860100FF
:10191000002030BD002221F07F42D34383827047F4
:10192000DF48006840F00100DD4908600846406873
:10193000DC490840DA49486008460068DA4908404E
:10194000D74908600846006820F4802008600846EF
:10195000406820F4FE0048604FF41F008860704724
:10196000CF49096821F48031CD4A116011460968D8
:1019700021F480211160B0F5803F03D0B0F5802FB5
:101980000ED106E0C649096841F48031C44A1160AD
:1019900007E0C349096841F4A021C14A116000E091
:1019A00000BF00BF704710B5014600220023002091
:1019B0004A11012A02D1BA4C236806E0022A02D158
:1019C000B74C236A01E0B64C636A01F01F020124A0
:1019D00094401C400CB1012000E0002010BD38B53F
:1019E000002000900024002500BF3120FFF7DBFF1E
:1019F00005460098401C00900098B0F5A06F01D0FB
:101A0000002DF2D03120FFF7CEFF08B1012400E015
:101A10000024204638BD01460020A14A106820F06D
:101A2000F80040EAC10010607047A04908607047A4
:101A3000024600209A4B586820F47C1042EA0103C9
:101A40001843974B5860704798490866704701469D
:101A50000020934A506820F003000843506070470C
:101A60008F48406800F00C007047014600208C4A07
:101A7000506820F0F0000843506070470146002095
:101A8000874A506820F4E060084350607047014680
:101A90000020834A506820F4605040EAC100506042
:101AA000704729B17E4A527A02437D4B5A7204E054
:101AB0007B4A527A82437A4B5A7270477B49D831BB
:101AC0000860704701460020754A506820F4404085
:101AD0000843506070470021714A20321170704AEB
:101AE00082F82010012802D004280AD104E0012144
:101AF0006B4A2032117005E00521694A20321170CD
:101B000000E000BF00BF7047694908607047644942
:101B1000096A0143624A11627047654944390860A5
:101B2000704730B500210022002400235C4D6D6811
:101B300005F00C0121B1042905D0082923D105E0C5
:101B40005C4D056022E05B4D05601FE0544D6D6803
:101B500005F47012524D6D6805F48034022505EBD2
:101B600092421CB9544D554305600BE04C4D6D68D5
:101B700005F400351DB1504D5543056002E04D4D53
:101B80005543056002E04B4D056000BF00BF444D6A
:101B90006D6805F0F0010909484D6B5C0568DD4092
:101BA00045603F4D6D6805F4E061090A434D6B5C8B
:101BB0004568DD4085603A4D6D6805F46051C90A9D
:101BC0003E4D6B5C4568DD40C560354D6D6805F484
:101BD0004041890B3A4D6B5CC568B5FBF3F5056177
:101BE00030BD29B12E4A526902432D4B5A6104E09F
:101BF0002B4A526982432A4B5A61704729B1284ABD
:101C000092690243264B9A6104E0254A9269824315
:101C1000234B9A61704729B1214AD2690243204B74
:101C2000DA6104E01E4AD26982431D4BDA617047D3
:101C300029B11B4AD2680243194BDA6004E0184A02
:101C4000D2688243164BDA60704729B1144A126990
:101C50000243134B1A6104E0114A12698243104B8C
:101C60001A61704712494039086070470F49C864CB
:101C700070470B49C87170470948406A40F080704E
:101C800007494862704701460020054A92680A40A9
:101C90000AB1012000E000207047014988727047B6
:101CA000001002400000FFF8FFFFF6FE0000424275
:101CB0008004424200127A0000093D000406002020
:101CC0001406002010B50446FB48844209D10121C6
:101CD0008803FFF7ADFF00214FF48040FFF7A8FF16
:101CE00032E0F648844209D101214804FFF7ADFFF4
:101CF00000214FF40030FFF7A8FF25E0F0488442B0
:101D000009D101218804FFF7A0FF00214FF48020B2
:101D1000FFF79BFF18E0EB48844209D10121C8047A
:101D2000FFF793FF00214FF40020FFF78EFF0BE039
:101D3000E548844208D101210805FFF786FF00210C
:101D40004FF48010FFF781FF10BD2DE9F04786B0FA
:101D500005460E460024A24600BFA1460027B089D2
:101D600000B100BF2F462C8A4CF6FF700440F0886B
:101D700004432C82AC894EF6F3100440B0883189BC
:101D80000843718908430443AC81AC8A4FF6FF4095
:101D90000440B0890443AC8201A8FFF7C2FEC648E4
:101DA000874202D1DDF810A001E0DDF80CA0A8897F
:101DB00000F4004040B10AEBCA0000EB0A103168A1
:101DC0004900B0FBF1F807E00AEBCA0000EB0A108B
:101DD00031688900B0FBF1F86420B8FBF0F0040131
:101DE0002009642101FB1089A88900F4004040B15A
:101DF000322000EBC900B0FBF1F000F00700044313
:101E000008E0322000EB09106421B0FBF1F000F093
:101E10000F0004432C8106B0BDE8F0874FF4165143
:101E2000016000218180C18001810C21418100215C
:101E30008181704710B502460020108A4FF2FF03DF
:101E400018400B884C8823438C882343CC88234339
:101E50001843108210BD0021018041808180C18023
:101E6000704721B1828942F40052828104E0828964
:101E70004DF6FF731A4082817047F0B50346002487
:101E800000260025002040F66A17B94200D100BFA5
:101E90001846C1F3421401F01F06012707FA06F5A0
:101EA000012C01D10C3004E0022C01D1103000E0F3
:101EB00014301AB107682F43076002E00768AF4388
:101EC0000760F0BD1AB1838A0B43838202E0838AE4
:101ED0008B4383827047028A4FF6F0731A40028266
:101EE000028A0A430282704782894FF2FF731A40C6
:101EF000828182890A438281704721B1828942F0BE
:101F00000202828104E082894FF6FD731A408281C9
:101F10007047028A4FF6DF731A400282028A0A4330
:101F20000282704721B1028A42F48042028204E0B8
:101F3000028A4BF6FF731A4002827047C1F308020F
:101F40008280704701468888C0F308007047818905
:101F500041F0010181817047028BD2B20283028B72
:101F600042EA012202837047028B02F47F4202831D
:101F7000028B0A430283704721B1828A42F0200219
:101F8000828204E0828A4FF6DF731A4082827047B1
:101F900021B1828A42F01002828204E0828A4FF6E6
:101FA000EF731A408282704721B1828A42F00802A0
:101FB000828204E0828A4FF6F7731A408282704769
:101FC00021B1828942F40042828103E08289C2F316
:101FD0000E028281704721B1828A42F400628282BD
:101FE00004E0828A4FF2FF731A4082827047828A2D
:101FF0004FF6FB731A408282828A0A4382827047BC
:1020000021B1828A42F00202828204E0828A4FF683
:10201000FD731A408282704702460020B1F5007FAE
:1020200000D100BF13880B400BB1012000E000205D
:10203000704701F40072B2F5007F00D100BFCA43BF
:102040000280704770B5024600240023002500205E
:1020500040F66A16B14200D100BFC1F3421501F04B
:102060001F03012606FA03F3012D02D1968933409E
:1020700006E0022D02D1168A334001E0968A3340F1
:102080000C12012606FA04F41688344013B10CB180
:10209000012000E0002070BD10B50022002340F6B2
:1020A0006A14A14200D100BF0A1201249440A3B2D5
:1020B000DC43048010BD00000038014000440040B3
:1020C00000480040004C004000500040421C10F806
:1020D000011B0029FBD1801A70470000064C074DF8
:1020E00006E0E06840F0010394E8070098471034E8
:1020F000AC42F6D3FDF7FEFF7824000898240008D0
:1021000070B58C1810F8015B15F0070301D110F8B9
:10211000013B2A1106D110F8012B03E010F8016BE6
:1021200001F8016B5B1EF9D12B0705D40023521E69
:102130000DD401F8013BFAE710F8013BCB1A921CD1
:1021400003E013F8015B01F8015B521EF9D5A142CF
:10215000D8D3002070BD02E008C8121F08C1002AB1
:10216000FAD170477047002001E001C1121F002A18
:10217000FBD17047FF0000002CFF00002EDF0000A5
:10218000FF0100003C3200001100000009020000C5
:1021900004A8000013E50000144800002C0C000007
:1021A000337800003A3300003BFB00003E000000A3
:1021B00043110000161000003992000035DA0000CB
:1021C000221A000037C300002300000034C00000C2
:1021D000361A00000688000007C000000D870000C6
:1021E0000E4100004C000000480000005B000000B1
:1021F000420300004A8100002199000024400000B1
:1022000025380000268200005C000000630000000A
:10221000460000000C3C000061700000628000007D
:102220007C05000020800000283000006C000000C9
:102230006D8000006E0000007002000071940000CC
:1022400073C100003D3400005A5700001200050021
:102250001711000018750000190100001A970000FE
:1022600032360000030F0000374000004FCA000064
:1022700050A800005A2300006D0000006D380000D7
:10228000FF000000E57F0000F9C0000041240000CD
:10229000E014000076FF000033A0000042200000A0
:1022A000431800004C00000087D50000883F000064
:1022B000D7030000D9100000D3820000C808000036
:1022C000C98000007C0000007D0000007C0300004D
:1022D0007D4800007D4800007C0800007D20000053
:1022E0007D1000007D0E000090000000910E0000A7
:1022F000911A000091310000915A0000916900008C
:1023000091750000917E000091880000918F00007F
:102310009196000091A3000091AF000091C40000CD
:1023200091D7000091E80000912000009200000089
:102330009306000093E3000093050000930500005E
:10234000930000009304000093000000930000003D
:102350009300000093000000930000009300000031
:1023600093000000960000009708000097190000F5
:1023700097020000970C000097240000973000009F
:102380009728000097260000970200009798000009
:10239000978000009700000097000000C3EF000046
:1023A000A4000000A8000000C5110000C6510000F4
:1023B000BF800000C7100000B6660000B8A500008E
:1023C000B7640000B97C0000B3AF0000B497000010
:1023D000B5FF0000B0C50000B1940000B20F0000CE
:1023E000C45C0000C0C80000C19600008C00000062
:1023F000863D00005000000051900000522C00006B
:102400005300000054000000558800005A9000005E
:102410005B2C00005C050000D3020000C3ED00004F
:102420007F000000DA090000E51F0000E1670000FE
:10243000E0000000DD7F000005000000FF0000005C
:10244000DA100000D7030000DF0000003380000036
:102450003C400000E177000000000000FF000000A9
:10246000E0140000E1770000E51F0000D703000042
:10247000DA100000E00000009824000800000020AE
:102480001806000000210008242800081806002073
:102490000044000066210008011372F84333301C29
:1024A000100C0603912C40C07803112C043F040348
:1024B000212D7088FC0829261820FF211E14F00801
:1024C000F033E0184D211C031E11338870000C10EE
:1024D0001E2123241927211010160E45E01804028E
:1024E00025071820403D020418E0692C2018070732
:1024F000174080F08040403F0202010F0102284255
:10250000F01D0101011F04912B80B066B1191D2936
:1025100001913A30CE492C146018043C6018061D15
:102520001EE010080810721F0F102020100FF0532B
:1025300010F83620203F20203C700808C21E3028AA
:10254000242221441E3008888848082E1820202084
:1025500011CC3BC0203227070424243F241AF82042
:102560002308084B19212036E0108888184B0F11DA
:10257000101E380808C8382021523F1A702E2960D2
:102580008F1C222121221C90111D31222211901911
:1025900061CAC0C26A80C659081C40201050170189
:1025A00002040810204A4001114A04012119152A89
:1025B000403219251B0402F21B7048D13AF0501A20
:1025C000360F1EC030C828E87028080718272423B3
:1025D000140B6F2A387E280D203C23020227382056
:1025E00008F888889F4B203FF01BC0303F1B0838FD
:1025F00030191019781B08F80F194039201B100FDB
:10260000103E8888E8081010AC23201810112A0307
:102610005E2940223829402C221E024019A41809A4
:10262000F808203F21010121252A08522981294249
:102630004149112EC08080807F0E2FF888C0281855
:1026400008501C0126382F2940292F29801B2030B3
:102650001012F81AF81413203F190229204B30C029
:10266000601A2074123F4BE010B06B0F10B029D0ED
:102670001AF0301980220179203F18242438504F55
:10268000C04C888870C0140C30204B7088C117383B
:10269000202121221C3A189F4A188239A049D011C2
:1026A0002A1F90121F240878881BC838151C073869
:1026B0000E60191A1AF8201114033C0714073C0382
:1026C0004814081868808068180820302C03032CF0
:1026D00030200838C82F5950298F29102F2038262C
:1026E000212020681145FE020202257F4040401A49
:1026F0000CE0611C0106380B191D42FE191D527FAA
:102700001A04120211045A80011930D91D391621F8
:10271000180819242222223F20AB390F115F3F11E4
:102720002020110E21311A0E104B2011104B88F869
:10273000102A10B359401A1F3F2B22130F16F0888E
:102740008888181A20D029D1497A21176B9494943B
:1027500093603960190F4C203F21F3548098987989
:102760003059121AC02719D1193039311F203F248E
:10277000022D30212A0812893069D7294B290319E3
:102780000BC96079A019BF2B201FDD390F9C80FF7A
:10279000A1E0191229D03BA0FF0C39501941122099
:1027A0008A01C01B3324012A190F3AE0413952290A
:1027B0000F392349603C103F202C29053F010E3082
:1027C00008060170291038080F300C030C300F2C4C
:1027D00049A14E312E0E31200C29621D818E7018B8
:1027E0003059D1215721302C22213055807C0202D2
:1027F000443F404072FF39083C02027C8F54404005
:102800003F9008060101020204047BA24A0C6809F9
:1028100001020304060708090C69100500020406FA
:0428200008000000AC
:04000005080000ED02
:00000001FF
